S0190000535441525445525F4B49545F44454D4F362E73726563E5
S2144000001040002095214000912140009121400061
S21440001091214000912140009121400000000000C5
S2144000200000000000000000000000009121400099
S21440003091214000000000009121400091214000A5
S21440004091214000912140009121400091214000A3
S2144000509121400091214000912140009121400093
S214400060912140009121400000000000891C400082
S2144000709D1C4000B11C4000912140009121400051
S2144000800000000000000000912140009121400047
S2144000909121400091214000912140009121400053
S2144000A09121400091214000912140009121400043
S2144000B09121400091214000912140009121400033
S2144000C091214000912140009121400010B5054CFF
S2144000D0237833B9044B13B10448AFF300800123AF
S2144000E0237010BDB40C002000000000709D40003E
S2144000F008B5064B1BB106480649AFF300800648D4
S214400100036813B1054B03B1984708BD00000000D3
S214400110709D4000B80C0020709D4000000000001C
S21440012070B582B0064602AC022344F8043D094D41
S21440013028462146084B98474FF40012074B5A630F
S214400140EE605620064B984728462146054B984772
S21440015002B070BD00800040A915400000120E405D
S21440016001000020D9154000F0B585B0254D4FF070
S21440017000466E635620244CA0472E635620A04768
S214400180022704AE46F8047D204C2046204B984774
S21440019000250095204631462A461E4B1E4EB04747
S2144001A001232360A8201D4CA0471F20A047D32032
S2144001B0A0472846A0474020A047A120A047C820E7
S2144001C0A047DA20A0473846A0478120A0478F2086
S2144001D0A047A420A047A620A047D520A04780201F
S2144001E0A0478D20A0471420A047DB20A0474020F2
S2144001F0A047D920A047F120A047AF20A04705B090
S214400200F0BD00BF00120E400100002000800040FC
S214400210D9144000404B4C002D15400021014000B1
S2144002202DE9F04F83B00378002B41D08346224E11
S214400230DFF894A0DFF894907E2B35D8203B1F4AF9
S21440024052F823703B78DBB1012517F8058002ACE5
S214400250022344F8043D30462146D0474FF400136D
S214400260C9F83030C6F80C805620154B98473046B3
S2144002702146144B98470135EDB23B78AB42E4D269
S21440028002AC022344F8043D30462146D0474FF4A2
S2144002900013C9F830300023F3605620084B9847C7
S2144002A030462146074B98471BF8013F002BC3D1E9
S2144002B003B0BDE8F08F00BF00800040340000204F
S2144002C001000020D9154000A915400000120E403C
S2144002D000B585B000230393074B019342F2107399
S2144002E002931320054B9847054801A9054B9847AC
S2144002F005B05DF804FB00BF000E2707391E40001E
S214400300008001400920400010B586B000240194CA
S214400310059401438DF80410012102910393049241
S2144003204F238DF81430034801A9034B9847C0B2B9
S21440033006B010BD008001404920400070B582B034
S214400340054600218DF804108DF805100846022257
S21440035001AB294CA047044600284AD19DF804200A
S2144003609DF8053043EA02239AB213F4004F1ABFB1
S214400370C2F30E02FF210121204B1B78DBB2032B78
S21440038037D8DFE803F0020F1C2AD00949B201FB38
S21440039000F01B4B984700221A4B1B4EB047C5E94E
S2144003A0000126E0900949B201FB00F0144B984743
S2144003B00022164B144EB047C5E9000119E050091B
S2144003C049B201FB00F00E4B984700224FF07F5396
S2144003D00D4EB047C5E900010BE0100949B201FBDC
S2144003E000F0074B98470022094B074EB047C5E937
S2144003F00001204602B070BD09034000D00C00202A
S214400400A94A40000000E03F754B40000000D03F46
S2144004100000B03F10B5074B1A6892F822300649E4
S21440042008781168527C003318BF0123034CA0475C
S21440043010BD00BFD80C0020DE0C0020FD0F400091
S2144004402DE9F041094C41F60D37094EDFF824807E
S21440045038460021B047054628B1C047C0B210B163
S214400460013CF5D100252846BDE8F081410D03004A
S2144004701D1240003512400010B582B00C4B1B6870
S2144004809989012300930B48090410220A4CA0477F
S214400490034650B1064B186812300121074B984767
S2144004A0034610B1064B98470346184602B010BDA7
S2144004B0D80C0020091108009D104000B5124000DD
S2144004C02913400008B5034B1B7813B90020024B94
S2144004D0984708BDDE0C00203D10400010B50028AF
S2144004E058D1354B9A68530903F5001303F2077346
S2144004F05B02DB6B02F01F02012101FA02F21A4294
S2144005000ED02D4B9B7B8B4205D12C4B1B7813B1C9
S21440051000222B4B1A600422274B9A73022010BDF0
S214400520254B9B7B042B15D10122234B9A73244BDE
S2144005301B683BB9214B1A70214B224959601A60FF
S214400540022010BD00221D4B1A701F481F4B9847B3
S214400550022010BD012B0BD1184B1B7803B3184B50
S2144005601B6813F4803F17D00022154B1A6017E023
S214400570114B9B7B032B11D00022154B1A700E4C4F
S214400580144B1C60144B9847A07B022814BF0020D5
S214400590012010BD042010BD022010BD032010BD58
S2144005A0054B02229A730D4A1A6001225A740022A1
S2144005B083F82220DCE700BF08040020D40C00208B
S2144005C010E000E0C0E1E40025CA820001000020FF
S2144005D0DE0C0020D80C002015044000801A0600CF
S2144005E008B50422034B9A73FF22034B1A70034B41
S2144005F0984708BD08040020DE0C0020D10F4000BC
S2144006002DE9F04186B0A94B98470446012803D00F
S214400610A74B984720461EE2A64B1B680122DA737A
S21440062000241C749C81A44B98474FF48850214664
S214400630A24B9847002800F0D08145F208504FF46E
S214400640D5719E4B9847002800F0CF819C4B984729
S214400650B0F1FF3F00F0CB81C0F30B00B0F5D57F83
S21440066040F0BB810126C3E138460021A847002858
S21440067000F0CC8141F22910B107A847002800F0CD
S214400680C581C04710F0010F02D0013CECD1BDE15E
S21440069040F23A500021894B9847002800F0B68136
S2144006A0874B984710F0804F00F0C281814B1B6803
S2144006B0DA7B42F00802DA73BAE130460021A847F6
S2144006C0002800F08A81B84710F0010F02D0013CA4
S2144006D0F3D182E140F23A500021784B9847002807
S2144006E000F07B81764B984700F0C040B0F1804FD9
S2144006F040F0A7816F4B1B68DA7B42F00802DA7342
S2144007009FE1704B9847002800F06781694B1B6853
S2144007109A7CC2F38302013A032A03D8DFE802F048
S21440072005080B0E12221A740AE014221A7407E007
S21440073022221A7404E030221A7401E040221A740D
S2144007405A7D02F00700604951F820104FF47A7045
S21440075000FB01F1C2F3C3025C4850F8222002FBC2
S21440076001F21A60997E187E5A7E920042EA8022F2
S21440077042EAA112C2F30B0240F6FF718A4211D040
S214400780187FD97E490041EAE011013201F00701A5
S214400790023102FA01F1DA7D02F00F0201FA02F2AA
S2144007A0920A5A601B7C3F2B3FD900210091484853
S2144007B04FF400720123474CA047002800F00D81FB
S2144007C00024454D03A8A847002800F006810134C0
S2144007D0A4B2322CF6D1374B1B689A7E197E5B7ECC
S2144007E09B0043EA812343EAA212C2F30B0240F67F
S2144007F0FF739A420ED12CE104A8A847002800F0C7
S214400800EC800134A4B2352CF6D92A4B1A68049BE6
S2144008105B085360304D06E004A8A847002800F067
S214400820DC800134A4B27F2CF6D941F210104FF48C
S2144008300071224B9847002800F0CF80274B9847FE
S214400840002800F0CA80264B9847BEE0194B1B682C
S214400850DB7B13F0010F00F09F801A4B984700286F
S21440086000F0BB80134B1B685A7D02F00700164908
S21440087051F820104FF47A7000FB01F1C2F3C30226
S214400880184850F8222002FB01F21A609A7C92091E
S2144008902AD0DA7E987E597E090441EA00210A432E
S2144008A0C2F31502013252025A6038E0DD044000BD
S2144008B0C5044000D80C0020651040001D124000C2
S2144008C03512400079044000C4934000E093400055
S2144008D0081108009D1040004112400041044000AD
S2144008E01504400084934000997E187E5A7E9200FC
S2144008F042EA802242EAA111187FDA7E520042EA9A
S214400900E012C1F30B01013102F0070202329140BE
S214400910DA7D02F00F0201FA02F2920A5A609989D1
S21440092041F2371009044D4B9847002855D0012313
S21440093000934B48002108224A4CA04700284CD040
S21440094004A80121484B9847002846D0474B984773
S214400950002842D09DF8103003F00F03012B08D03A
S21440096013B1022B0AD013E0414B1B6810221A74B5
S21440097012E03F4B1B681A221A740DE09DF81230A5
S214400980DB093B4B1B6814BF302220221A7403E05D
S214400990374B1B6810221A74354B1B68DB7B03F001
S2144009A00903012B06D141F210104FF400712B4B76
S2144009B0984790B12E4B1B68DB7B13F0010F02D09B
S2144009C02C4B984748B12C4B9847294B1B68002224
S2144009D09A732A4B984701203DE0254B1B68032419
S2144009E09C73264B9847204635E0002600E00026BC
S2144009F01F4B1B68DB7B13F0010FCDD041F6EF3465
S214400A0041F23717154DDFF878802DE6184B1B68F6
S214400A100222DA734FF488500021104B9847002882
S214400A20DBD041F6EF3441F201160C4D144F44E64C
S214400A3041F23B100021094B984700287FF406AF4F
S214400A40CBE741F23B100021044B98470028C4D026
S214400A5057E60C4DD0E606B0BDE8F0811D124000CA
S214400A60331108009D104000B51240002913400085
S214400A70D80C00204104400015044000C504400046
S214400A80351240004112400008B5054B984728B93A
S214400A90044B9847044B1B68D87B08BD002008BD14
S214400AA0DD044000C5044000D80C002008B5054BC6
S214400AB0984728B9044B9847044B1B68586808BDAC
S214400AC0002008BDDD044000C5044000D80C0020CE
S214400AD00020704770B582B00E461546154CA047AC
S214400AE028BB154B984718B9144B984705201EE06D
S214400AF0134B1448012D88BF1846134B1B68DB7BED
S214400B0013F0080F08BF76020123009331464FF4D6
S214400B1000722B460D4CA04718B9084B9847052045
S214400B2005E00B4B1D800B4B1D800020FFE702B0FD
S214400B3070BD00BFDD04400041044000C5044000D5
S214400B401211100011110800D80C00209D10400012
S214400B50DC0C0020D20C002010B50C46064B984703
S214400B6020B90022054B1A80052010BD034B1A8879
S214400B70141B1C80002010BDB5124000DC0C002069
S214400B8010B50446124B9847F0B11CB10022114BE9
S214400B901A8002E00F4B1B88C3B90F4B1B88012BF2
S214400BA003D10E4B9847002010BD43F20C10002195
S214400BB00B4B984720B943F20C100021084B98473E
S214400BC0064B9847002010BD052010BD002010BDE4
S214400BD029134000DC0C0020D20C0020C504400045
S214400BE01D12400030B583B00D461446114B984751
S214400BF0F0B9114B1148012C88BF1846104B1B68A2
S214400C00DB7B13F0080F08BF6D02012300932946D3
S214400C104FF4007223460B4DA84718B90A4B984725
S214400C20052005E0094B1C80094B1C800020FFE78F
S214400C3003B030BDDD044000199110001891080043
S214400C40D80C00209D104000C5044000DC0C00205D
S214400C50D20C002010B50C46064B984720B900220F
S214400C60054B1A80052010BD034B1A88141B1C80A8
S214400C70002010BD2D134000DC0C002010B50446AB
S214400C80094B984758B11CB10022084B1A8002E025
S214400C90064B1B882BB9064B9847002010BD0520F5
S214400CA010BD002010BD00BFB1134000DC0C00207A
S214400CB0C504400010B504460F4B9847012803D0A2
S214400CC020B102280FD013E0032010BD0B4B1B5D54
S214400CD083B920460A4B984700F0030000280CBF13
S214400CE00220002010BD0022044B1A55022010BDE1
S214400CF0012010BD022010BD01064000E00C00207F
S214400D00890A400008B50020014B984708BD00BF3F
S214400D10B50C400038B504460D46044B9847400095
S214400D20013828602046024B984738BDAD0A40003F
S214400D30B50C400008B501460020014B984708BD59
S214400D40150D400008B50020014B984708BD00BF70
S214400D50D10A400010B5144601220A4B984720B1EC
S214400D6002280CBF0220012010BD20460121064B60
S214400D70984728B9054B9847003018BF012010BD4A
S214400D80012010BDD50A4000590B4000810B4000A1
S214400D9008B503460A4600201946014B984708BD49
S214400DA0550D400010B5144601220A4B984720B115
S214400DB002280CBF0220012010BD20460121064B10
S214400DC0984728B9054B9847003018BF012010BDFA
S214400DD0012010BDE50B4000550C40007D0C400046
S214400DE008B503460A4600201946014B984708BDF9
S214400DF0A50D400000B583B002A9FF2301F8013DD0
S214400E000A4801220A4B98470A4B1B88012B0CBF05
S214400E10FE23FC238DF8063004480DF1060101221E
S214400E20034B984703B05DF804FB00BF00800040CA
S214400E30F9154000E40C002070B582B002ACFF23E8
S214400E4004F8013D0F4E3046214601220E4DA8477C
S214400E50304621460122A847304621460122A8476F
S214400E600A4C06E030460DF107010122A847013C36
S214400E7005D09DF80730FF2BF4D1012000E000207C
S214400E8002B070BD0080004031164000400D0300A7
S214400E9070B582B0154B1B88012B20D0144A12889F
S214400EA014490968B1FBF2F293421AD802ACFF2308
S214400EB004F8013D104E3046214601220F4DA8470A
S214400EC0FD238DF80730304621460122A8470C4BBB
S214400ED09847034630B905210A4A117002E00123BB
S214400EE000E00123184602B070BD00BFE40C0020AD
S214400EF0EC0C0020E80C002000800040F915400073
S214400F00390E4000EE0C0020F0B583B002AD002351
S214400F1005F8013D104C114F114E06E0013C04D13E
S214400F200422104B1A70002014E03846294601224D
S214400F30B0479DF8073013F0F00F08D113F0070FB5
S214400F4014BF07220B22074B1A70002002E0FE2B2C
S214400F50E4D1012003B0F0BD20A10700008000408E
S214400F6031164000EE0C002010B582B002A94FF6B4
S214400F70FF7321F8043D124C20460222114B98473D
S214400F8020460DF1070101220F4B98479DF8073088
S214400F9003F01102012A04D001220C4B1A700020E3
S214400FA00CE003F01E03042B07D00A2B0CBF0822CC
S214400FB00A22064B1A70002000E0012002B010BD45
S214400FC000800040F915400031164000EE0C00202D
S214400FD010B50022064B1A70064B1B6913F4803F6F
S214400FE005D1044C2046044B98470123236010BD8E
S214400FF0EE0C002000800040D914400070B582B04E
S2144010000B46002208490A70084C04EB8004084D41
S214401010009228462146074EB04728462146064BB2
S214401020984702B070BD00BFEE0C00202C04002094
S214401030008000402D154000A915400008B500224C
S214401040044B1A70044901EB80010448044B98474E
S21440105008BD00BFEE0C00202C040020008000409D
S214401060D9154000F0B583B002ADFF2305F8013D29
S2144010700022074B1A700A24064F074E3846294668
S2144010800122B047631E13F0FF04F7D103B0F0BD52
S214401090EE0C002000800040F91540002DE9F0439A
S2144010A085B0064690461F46FF238DF80F30002336
S2144010B0514A137000F03F0242F040028DF808207B
S2144010C00A0E8DF809200A0C8DF80A200A0A8DF8B7
S2144010D00B208DF80C100DF107020DF10C0E194681
S2144010E0082012F8014F05464900C9B284EA0103B8
S2144010F013F0800F18BF81F009016400E4B2013D8F
S21440110015F0FF05F0D17245EBD14B0043F00103DB
S2144011108DF80D30394C20460DF10F010122384D27
S214401120A847204602A90622A84704A9FF2301F89B
S214401130093D20460122334B98470724DFF8BC90F0
S214401140304D48460DF107010122A8479DF807207B
S21440115012F0800F08D0631E13F0FF04F1D1022274
S214401160254B1A70002343E0274B1A6012F0080FF5
S21440117004D00622204B1A70002339E012F0040FE8
S21440118004D009221C4B1A70002331E032F00103D0
S21440119004D00122184B1A70002329E016F4005F91
S2144011A007D01A4B9847034618B90321124A1170C4
S2144011B01EE016F4007F06D0134900230B600F484C
S2144011C00122104B984716F4806F08D00E4C0B48FF
S2144011D0214604220B4B984723681BBA23600C4BCE
S2144011E0A3F800800B4B1F8000220B4B1A60012394
S2144011F0184605B0BDE8F083EE0C002000800040A5
S214401200F915400031164000F00C0020390E400021
S214401210EC0C0020E40C0020E80C002010B582B056
S214401220002300931A46024CA04702B010BD00BFF0
S2144012309D104000014B1868704700BFF00C00201E
S21440124030B583B005460022144B1A70144B1B88E9
S214401250144A1268B2FBF3F403FB14231BB9124B77
S21440126098470346B8B1114829460422104B984780
S2144012700C4A136804331360094A1288B3FBF2F130
S21440128002FB113333B9094801A90222084B98479B
S214401290012300E00123184603B030BDEE0C0020C9
S2144012A0EC0C0020E80C0020090F400000800040B5
S2144012B0311640002DE9F04F83B083460022144B90
S2144012C01A700D46E9B11446DFF854A0DFF8548092
S2144012D0104FD0478146B0B140460BEB04013A88E8
S2144012E00D4EB0473A8814440C4B19680A441A60AD
S2144012F0404601A90222B047013DADB2002DE8D1DB
S21440130001E04FF00109484603B0BDE8F08F00BF4A
S214401310EE0C0020EC0C002031164000E80C0020BB
S214401320090F400000800040012070472DE9F84337
S21440133081460025164B1D7001398CB2DFF86C8053
S214401340144F154E1BE0C047384609EB050132885E
S214401350124B984732881544114B19680A441A6054
S214401360104B9847034678B13CB10F4B984703461D
S21440137018B90521064A117006E0013CA4B24FF6A2
S214401380FF739C42DFD101231846BDE8F88300BFB7
S214401390EE0C002000800040EC0C0020F9154000C8
S2144013A0E80C0020690F4000390E4000F50D400063
S2144013B008B5064B9847034618B90521044A1170EC
S2144013C002E0044B98470346184608BD390E4000D5
S2144013D0EE0C0020910E400010B50E480E4B98477C
S2144013E000203E210D4B98470D4CA0470028FCD0CE
S2144013F00C4B98470C4A0D4B9A620D4CA047002860
S214401400FCD010200B4B98470B4B98470148024B9B
S214401410984710BD000E27075D234000B51D4000CD
S214401420091E4000191E4000013F132000040E40D4
S214401430291E4000511D4000492240002DE9F04F32
S21440144083B005461646002A35D001F1FF381C4FBA
S214401450DFF87890DFF870B01A4B019318F8014F18
S214401460BD4207D1DFF868A038462146D04700285D
S214401470FAD11EE0134B9D4207D1DFF854A00198E5
S2144014802146D0470028FAD113E04D4507D1DFF872
S21440149044A048462146D0470028FAD109E00A4BE6
S2144014A09D4206D1DFF82CA058462146D04700285A
S2144014B0FAD1013ED2D1002003B0BDE8F08F00BF84
S2144014C000060E4000080E400080024000400240E9
S2144014D0552140007521400010B50446104B9847F2
S2144014E080232360636843F001036360636843F0CE
S2144014F010036360636823F0800363602046002126
S214401500084B9847636823F002036360636823F0E0
S2144015100403636020460021034B984710BD00BF7C
S214401520A91E4000B91E4000D11E4000F8B5054631
S2144015300C46164618461449144B98470746284604
S214401540216800221346DFF85CC0E0472846216841
S21440155008220F4B984728462168FAB20D4B984709
S2144015602846216808220C4B98472846216872086E
S2144015700A4B984786F001022846216802F001028D
S214401580074B9847F8BD00BF000E27077D1F400059
S214401590691F4000951F4000251F4000E51E400083
S2144015A0051F4000AD1F400008B5436813F0040F08
S2144015B005D009680F290BD8064B984708BD0B681D
S2144015C0032B05D8012202FA03F1C943014B984781
S2144015D008BD00BFB91E400010B50446236913F489
S2144015E0007FFBD020460F21024B98474FF0807378
S2144015F0236010BDB91E4000F0B4174622B9002043
S21440160013E0013B04D10DE0002543F6992633460E
S214401610046914F0020FF4D04B5DC3600135AF424D
S214401620F5D101E0FD2000E0002040B2F0BC70475C
S214401630F0B4944622B9002021E0013B07D119E0DE
S214401640002643F69927FF2240F201253B460469CF
S21440165014F0020FF1D0C2603B4601E0013B0BD0D4
S21440166004692C40AC42F9D183688B550136B445A9
S214401670ECD103E0FD2002E0FD2000E0002040B277
S214401680F0BC704708B510B9024B984708BD01201A
S21440169008BD00BF050D400008B518B90846024B06
S2144016A0984708BD012008BD350D4000D0F1010027
S2144016B038BF0020704700BF08B510B9024B9847A6
S2144016C008BD012008BD00BF450D400008B520B943
S2144016D008461146024B984708BD012008BD00BF8A
S2144016E0910D400008B520B908461146024B984770
S2144016F008BD012008BD00BFE10D4000F8B53848E0
S214401700384B98470B20384CA0470C20A0470D205C
S214401710A047364B4FF400021A631A61C3F8A02064
S214401720334C04256561C4F8A0506566C4F89050F3
S21440173065656562C4F88050226F22F00402226715
S214401740626F22F0040262674FF480121A631A61D5
S214401750C3F8A0204FF4803222632261C4F8A02050
S2144017604FF480021A631A61C3F8A02021480C2166
S2144017704FF00062204B9847204F03203946204EBA
S214401780B04728463946B0470C203946B0470D206A
S2144017903946B0470E203946B04709204FF08051B1
S2144017A0B0470A201749B04707F1405755203946F9
S2144017B0B0475F203946B0474C201349B04765666E
S2144017C0C4F8905065656562C4F88050236F23F076
S2144017D004032367636F23F004036367F8BD00BF09
S2144017E050140E4089214000391E400000120E4021
S2144017F0000E0E4000100E40011B40000100000885
S214401800DD194000010000100100002830B401241A
S21440181004600024446040F20225C0F82051C0F81D
S2144018200441C0F8144145682B435200B1FBF2F125
S2144018304D1E2D02ADB22B434360204630BC704750
S21440184043681943D201D3B219434160704700BF81
S21440185002230360704700BF012303FA01F10161D0
S214401860704700BF0F299ABF143150F8210000205E
S214401870704700BFC0F8841052004FF40043B3FBDB
S214401880F2F3013BC3F30D03C0F88C30704700BF42
S21440189010B44264B1F1C05F2ED008D8B1F1006FE9
S2144018A014D0B1F1805F1DD0002935D135E0B1F1BB
S2144018B0205F32D003D8B1F1005F27D02CE0B1F1E1
S2144018C0405F2AD0B1F1605F27D025E0016F046FFA
S2144018D0D343214019400167416F446F21400B407C
S2144018E0436719E0036F13430367436F416F0B4031
S2144018F023EA020343670FE0036F016F0B4023EABE
S21440190002030367436F1343436705E0036F1343C4
S2144019100367436F1343436742605DF8044B704769
S214401920416412F0010F14BF4166016612F00A0FBF
S21440193014BF0162416212F0020F02D0C0F880105C
S21440194004E012F0080F18BFC0F88410416101602F
S214401950704700BF10B44164019C0CB1416600E082
S21440196001660BB1016500E041650AB1016300E024
S2144019704163016101605DF8044B704712F0100F3F
S21440198010D0C0F8B01012F0200F14BFC0F8D4101A
S214401990C0F8D01012F0400F14BFC0F8C010C0F806
S2144019A0C4107047C0F8B410704700BFC36C0164E1
S2144019B0704700BF41647047C06C7047806C70478A
S2144019C0430903F5001303F207735B02DB6B00F079
S2144019D01F0023FA00F000F00100704770B582B097
S2144019E00D46440904F5001404F20774660201F03B
S2144019F0F044B4F1005F47D009D8B4F1805F21D0FD
S214401A00B4F1C05F2FD0B4F1006F6FD109E0B4F1EC
S214401A10405F55D0B4F1605F52D0B4F1205F44D0FF
S214401A2064E000F01F000124844030464FF000611F
S214401A302246304B984715F0010F14BF7466346643
S214401A40012054E000F01F000124844030464FF04F
S214401A5080512246274B984715F0010F14BF7466F5
S214401A603466012043E000F01F00012484403046E5
S214401A704FF0C05122461F4B984715F0010F14BF38
S214401A8074663466012032E000F01F000124844072
S214401A9030464FF000512246164B984715F0010F3E
S214401AA014BF74663466012021E000F01F01012453
S214401AB0304604FA01F12A460F4B9847204616E076
S214401AC000F01F01012405F0605205EA040300936C
S214401AD0304604FA01F1B2F1605F14BF00220122E1
S214401AE0C5F38003054DA847204600E0002002B01D
S214401AF070BD00BF911840002119400055194000A4
S214401B00F0B583B007460E46154602F0F044B4F1F1
S214401B10005F38D009D8B4F1805F1CD0B4F1C05F04
S214401B2025D0B4F1006F50D109E0B4F1405F3AD00F
S214401B30B4F1605F37D0B4F1205F30D045E04FF06D
S214401B4000613246224B984715F0010F14BF7E665F
S214401B503E6601203AE04FF0805132461C4B984793
S214401B6015F0010F14BF7E663E6601202EE04FF052
S214401B70C0513246164B984715F0010F14BF7E668B
S214401B803E66012022E04FF000513246104B984707
S214401B9015F0010F14BF7E663E66012016E00D4B21
S214401BA09847012012E005F0605205F001030093CB
S214401BB038463146B2F1605F14BF00220122C5F3B9
S214401BC08003054CA047012000E0002003B0F0BD94
S214401BD09118400021194000551940002DE9F8435E
S214401BE081460E46144B984705464846134B984741
S214401BF0054017D0124F07F10C046C3754F80C3CD4
S214401C00B3420AD154F8081C294206D0236830460D
S214401C10984754F8083C25EA0305BC4202D01034E5
S214401C20002DEBD1074B1B6823B1074B1B680BB14C
S214401C3048469847BDE8F883B9194000BD194000AA
S214401C40FC0C0020D80D0020F80C0020F8B50B4CFA
S214401C502468062C10D80A4F2601BD19B9516A606F
S214401C60AB600699E960013404490C6011461A4697
S214401C70044B98470020F8BD0120F8BDF40C002026
S214401C80FC0C00207D19400008B502480B21024B91
S214401C90984708BD000E0E40DD1B400008B50248C0
S214401CA00C21024B984708BD00100E40DD1B40003B
S214401CB008B502480D21024B984708BD00120E4059
S214401CC0DD1B40002DE9F84305460C4691461B4B6C
S214401CD09847804628464FF0FF31194B984728468C
S214401CE0184B9847E7B207F01F0301269E4063094A
S214401CF09B0003F1604303F56143C3F88060C3F87B
S214401D008061002C09DA07F00F074FEA09195FFADD
S214401D1089F90D4A02F8079009E04FEA09195FFA77
S214401D2089F904F1604404F5614484F800931E6028
S214401D3028464146054B9847BDE8F883BD19400004
S214401D40B5194000B919400014ED00E0AD19400047
S214401D50174B1A6B22F07002104318639B6E13F0F9
S214401D60080F09D14FF40063114901E0013B19D037
S214401D708A6E12F0080FF9D00D4B1A6B22F0030250
S214401D8042F002021A63986E10F008000CD14FF42D
S214401D900063074901E0013B08D08A6E12F0080F45
S214401DA0F9D07047012070470020704701207047E7
S214401DB000040E4038B111490B6A114A1A40114BC3
S214401DC013430B6270470D4A136A23F45C1323F0E7
S214401DD0030343F45C1343F00103090289B20B4347
S214401DE01362936E13F0010FFBD0044A136A43F05C
S214401DF09B7343F480331362704700BF00040E4069
S214401E00FCFFC8FE02003701024B986E00F480309B
S214401E10704700BF00040E404FF00052014B9A62DC
S214401E20704700BF00040E40024B986E00F0020060
S214401E30704700BF00040E40222820D81F280DD827
S214401E40124B9A69012383401A40934219D00123CA
S214401E5003FA00F00D4B1861002070470B4BD3F887
S214401E6008212038012383401A4093420BD0012397
S214401E7003FA00F0054BC3F800010020704701202C
S214401E807047002070470020704700BF00040E4097
S214401E9021B1436843F0010343607047436823F031
S214401EA001034360704700BF08B51520014B9847B3
S214401EB008BD00BF391E4000436823F470234360CA
S214401EC04368090401F470210B434360704700BF28
S214401ED0436823F07F434360436843EA01614160BF
S214401EE0704700BF32B100EB8100036B43F0010343
S214401EF00363704700EB8100036B23F00103036329
S214401F00704700BF32B100EB8100036B43F0020321
S214401F100363704700EB8100036B23F00203036307
S214401F20704700BF042A0AD100EB8100036B23F000
S214401F3008030363036B43F004030363704752B91B
S214401F4000EB8100036B23F008030363036B23F06D
S214401F50040303637047082A05D100EB8100036B36
S214401F6043F008030363704700EB81010B6B23F0DB
S214401F70F0030B630B6B1A430A637047431E194406
S214401F80B1FBF0F0431EFE2B94BF80B24FF6FF70BD
S214401F9000B2704700EB81010B6B23F47F430B6369
S214401FA00B6B43EA02220A63704700BF00EB8101D5
S214401FB0086B80B20863086B40EA036343EA024258
S214401FC00A6370470F4B994219D84900B2FBF1F2A9
S214401FD0043AFF2A07D9002301335208FF2A03D9BF
S214401FE0072BF9D100E00023110289B21B0403F449
S214401FF0E0230B43D2B21A4302610020704701200F
S214402000704700BF801A060038B504460D464FF0AC
S214402010FF338362036A80230360036B08230360F5
S214402020202303600423036049682A68054B9847C9
S214402030012814BF002001206B7A012B04BF4023E7
S214402040236038BDC51F40002DE9F0030446CB6829
S2144020508E68002B49D0002242604868000200F497
S214402060407040F480500D7C2D0405F4FE05284356
S2144020706060E2604A685AB10878012AC4BF4D7869
S21440208045EA0020022A04DD8A7842EA002000E081
S2144020900020E060012B04D1032222604FF0010CA7
S2144020A02BE0012222604FF0000C26E0216A11F45A
S2144020B0807F1CD1551EE2B12A46012B05D1BCF1CA
S2144020C0000F02D1C4F80090C44611F0020F04D0AD
S2144020D0226B3270013B01363A46002BE6D1236A2A
S2144020E013F0010FFBD0236A14E0012012E0052014
S2144020F010E009200EE005200CE0216A11F4807003
S214402100F9D143F697224FF002094FF0010843F603
S2144021109827D2E7BDE8F003704700BF10B4AC2361
S21440212003600A684B68B2FBF3F31B095C1E4FF66C
S214402130FE7294420AD803628B68436040F20223E0
S214402140C0F8203150230360002000E001205DF8F5
S214402150044B7047436913F0020F1ABFC161002059
S2144021600120704740230360704700BF1023036080
S214402170704700BF436913F0020F1DBFC1F308014B
S214402180C1610020012070474FF400434360704710
S214402190FEE700BF10B5204B204A9A4212D9204B8A
S2144021A01D4A9A421FD2131D1E4CE41A24F0030403
S2144021B004340023104619495A581A500433A3428F
S2144021C0FAD110E0144B154A9A420CD2144A1946DA
S2144021D0D31A1548184433B113469C1A245843F86A
S2144021E0044D9942F9D100BF104B114A9A420BD286
S2144021F0131F1049C91A21F003011A1D1144002269
S21440220043F8042F8B42FBD10B4B0C4A9A600C4B85
S21440221098470C4B9847FEE700000020709D400012
S214402220B40C0020B70C00206C9D4000101000201D
S214402230B40C00200B10002000ED00E00000400031
S214402240E95040005D3E40003D4B1B6B03F00303EE
S214402250032B5DD8DFE803F0020E2B2B394B5B696E
S21440226013F0800F14BF4FF400424FF4FA42364B3F
S2144022701A604DE0324B1B6A13F0807F03D0334A1E
S214402280314B1A6044E0324A2F4B1A602C4B1B6A83
S21440229003F07003102B02D0202B04D038E02D4AD8
S2144022A0294B1A6034E0294A274B1A6030E0244B09
S2144022B01B6A13F0807F03D0244A234B1A6012E037
S2144022C0234A214B1A601E4B1B6A03F07003102BE7
S2144022D002D0202B04D006E01E4A1B4B1A6002E0B8
S2144022E01A4A194B1A60164B1B6B03F00303022B5A
S2144022F0134B07BF986A996AD86AD96A124BC0F3DB
S2144023000A401A6800FB0222C9B2B2FBF1F21A6018
S2144023100B4B1B6B03F07003702B07D10A4B1A68EC
S2144023200D49A1FB020252081A607047044B196B14
S214402330054BC1F302111A68CA401A60704700BFC5
S21440234000040E4010140E4030040020001BB7005E
S21440235000093D0000127A00ABAAAAAA1A4B98427E
S21440236007D84FF08063194A136002F50072136075
S2144023707047174B984206D8164B144A136002F51E
S214402380007213607047144B984206D8134B0F4A9E
S214402390136002F5007213607047114B984206D8DE
S2144023A0104B0A4A136002F50072136070470E4BDA
S2144023B0984294BF4FF004230C4B044A136002F536
S2144023C000721360704700BFFF2C3101000A0E40B8
S2144023D0FF59620200010004FF86930300020004D6
S2144023E0FFB3C40400030004FFE0F5050005000445
S2144023F0094B1B6813B9094A074B1A60064B1B6802
S2144024001A180749914204DB1046034A10601846E2
S21440241070474FF0FF3070476C0D00201040002092
S214402420FC7F022010B504460F4800210F4B98470A
S214402430012C12D820460E4B9847032804D120463C
S2144024400B4B984703280AD058B92046094B984763
S21440245000280CBF0020042010BD012010BD012024
S21440246010BD012010BD00BF60140E40911E4000FC
S21440247085164000B916400008B5054B984720B170
S21440248002280CBF0320012008BD002008BD00BF65
S214402490851640002DE9F04F83B007460D4614469A
S2144024A09A46184EB0470646F8B1384601A9164B2C
S2144024B09847B04606FB0A42019B03FB06639A42D6
S2144024C015D8D146BAF1000F13D04FEA462A002657
S2144024D0DFF838B0384621462A46D84758B901363C
S2144024E0444455444E45F5D307E0012006E0042019
S2144024F004E0002002E0012000E0002003B0BDE838
S214402500F08F00BFAD16400099164000CD16400033
S2144025102DE9F04F83B007460D4614469A46184EAE
S214402520B0470646F8B1384601A9164B9847B0461C
S21440253006FB0A42019B03FB06639A4215D8D14626
S214402540BAF1000F13D04FEA462A0026DFF838B01B
S214402550384621462A46D84758B901364444554459
S2144025604E45F5D307E0012006E0042004E00020B5
S21440257002E0012000E0002003B0BDE8F08F00BF7D
S214402580AD16400099164000E516400022B182186C
S21440259000F8011B9042FBD1704700BF02398369A7
S2144025A0023B99423DBF8278836A02FB013000209D
S2144025B0704700BF00F10B010023DA0142EA5303E3
S2144025C010F8012B52FA83F3DBB28842F5D1184655
S2144025D0704700BF08B570B1027872B1C2888A42AF
S2144025E00DD14078074B984700F0010000280CBFFB
S2144025F00020032008BD092008BD092008BD092089
S21440260008BD00BF7924400038B504460A464078E5
S21440261004F1300101231D4DA84788BB94F82F22B2
S21440262094F82E3243EA022212B2194B9A4229D12A
S21440263094F8692094F868301B0443EA026294F8E0
S2144026406630134394F8672043EA022222F07F4222
S214402650104B9A4218D094F8850094F884301B04A6
S21440266043EA006094F88230034394F8830043EAD8
S214402670002020F07F40074BC01A18BF012038BD0D
S214402680032038BD022038BD002038BD95244000C8
S21440269055AAFFFF464154002DE9F041164603680F
S2144026A01C78303C092C08D85A783A2A07D102338D
S2144026B00360072C00F2658102E0002400E000245D
S2144026C0D04B53F824500D60002D00F05D812B78E0
S2144026D08BB16878CC4B984710F0010F0BD1002E89
S2144026E000F0558100F00400C0B2002814BF0A2054
S2144026F00020BDE8F08100232B70E0B26870C34B29
S214402700984710F0010F40F045811EB110F0040FBD
S21440271040F0438128460021BD4B9847012817D1F9
S21440272095F8F231002B00F03B8195F8F92195F8A9
S214402730F8311B0443EA026295F8F631134395F8E4
S214402740F74143EA042428462146B14B984700E027
S2144027500024032800F02781002840F0278195F8C0
S2144027603C2095F83B3043EA02231BB2B3F5007F8A
S21440277040F01F8195F8470095F8463053EA002010
S2144027800DD195F8572095F856301B0443EA02625F
S21440279095F85430134395F8550043EA0020E86115
S2144027A095F84010E9704B1EDBB2012B00F2048115
S2144027B095F83D30AB70002B00F001815A1E1A424E
S2144027C040F0008195F8426095F8412042EA0622A2
S2144027D02A8112F00F0F40F0F88095F8447095F873
S2144027E0436056EA07260DD195F8537095F8526027
S2144027F0360446EA076795F850603E4395F85170B0
S21440280046EA072695F83FC095F83E7057EA0C27EB
S21440281000F0DE8001FB00FC07EB121161448E42A3
S214402820C0F0D980761AB6FBF3F3002B00F0D680C2
S21440283040F6F576B3428CBF022601264FF6F57871
S214402840434500F2D7800233AB612144A962274456
S2144028502F62032E13D1002A40F0C38095F85F10F4
S21440286095F85E20120442EA016195F85C200A431E
S21440287095F85D1042EA01226A629B000DE0002A4C
S21440288000F0B28067446F62022E0FBF5B0003EB1E
S214402890430203F0010303EB520303F2FF13B0EBD2
S2144028A0532FC0F0A4804FF0FF332B610023EB6022
S2144028B0032E5AD16B7195F8612095F8603043EA43
S2144028C0022222446A61687805F130010123514CA6
S2144028D0A047002849D195F82F2295F82E3243EA92
S2144028E0022212B24C4B9A423FD195F8332095F8CB
S2144028F032301B0443EA026295F83030134395F8B1
S214402900312043EA0222454B9A422ED195F81722AF
S21440291095F816321B0443EA026295F814321343C4
S21440292095F8152243EA02223D4B9A421DD195F86E
S2144029301F2295F81E321B0443EA026295F81C32A9
S214402940134395F81D2243EA0223EB6095F81B22B9
S21440295095F81A321B0443EA026295F8183213437C
S21440296095F8192243EA02232B612E702D4A1388CC
S21440297001339BB21380EB800020E8622871BDE8EB
S214402980F0810B20BDE8F0810C20BDE8F0810020EE
S214402990BDE8F0810320BDE8F0810A20BDE8F08163
S2144029A00D20BDE8F0810120BDE8F0810D20BDE896
S2144029B0F0810D20BDE8F0810D20BDE8F0810D20AE
S2144029C0BDE8F0810D20BDE8F0810D20BDE8F08126
S2144029D00D20BDE8F0810D20BDE8F0810D20BDE85A
S2144029E0F0810D20BDE8F0810D20BDE8F0810D207E
S2144029F0BDE8F0810233AB612144A96227442F62CF
S214402A00032628E7740D0020792440002524400042
S214402A10092640009524400055AAFFFF52526141C6
S214402A2072724161700D00202DE9F8430D4601F1A8
S214402A3009020369002B5ED0416991F80C800B783F
S214402A40202B1BD00E46002408F00807FFB203E0F8
S214402A5016F8013F202B11D0052B08BFE52347B1C0
S214402A60A3F1410C5FFA8CFCBCF1190F9CBF2033DC
S214402A70DBB202F8013B0134082CE9D10B7A202B5B
S214402A8022D0561C2E2313700B7A202B1BD001F11C
S214402A900804171D324608F010085FFA88F603E06F
S214402AA014F8013F202B0FD046B1A3F1410C5FFA3A
S214402AB08CFCBCF1190F9CBF2033DBB202F8013B03
S214402AC0BA42EDD100E03246CB7A2B72CC7F8B7F78
S214402AD01B0443EA04630C7F23434C7F43EA0423EE
S214402AE02B604C7E0B7E43EA0423AB80CC7D8B7DF3
S214402AF043EA0423EB8000231370AE6956B3EB69B8
S214402B0043B30369DBB1028C4FF6FF739A4218D089
S214402B10C7693888B8B10024A146DFF83C804946EA
S214402B20C04790B1EA69013AA24210D9013432193D
S214402B3002F8010C37F814000028F0D108E0002411
S214402B4006E0002404E0002402E0002400E0002424
S214402B5000233355BDE8F883E13740002DE9F047C0
S214402B6004460E46C56A8D422FD003790BB300F15A
S214402B703008407841462A4601231A4FB84738BBAA
S214402B8000232371E269236A13449D4211D2E778F9
S214402B90012F0ED94FF0010ADFF84890E26915443C
S214402BA0607841462A465346C847013FFFB2012F48
S214402BB0F4D186B1607804F13001324601230A4DE3
S214402BC0A84758B9E662BDE8F0870020BDE8F08720
S214402BD00120BDE8F0870020BDE8F0870120BDE871
S214402BE0F08700BF1125400095244000F8B5054603
S214402BF00C4601295CD9836999425BD20378022B43
S214402C0028D0032B39D0012B56D101EB5106016A4F
S214402C1001EB5621304B9847002850D1C6F30803A5
S214402C202B4493F830700136296A284601EB56212A
S214402C30294B9847002845D1C6F30806354495F8F1
S214402C40300047EA002014F0010F14BF0009C0F31B
S214402C500B00F8BD016A01EB14211F4B9847002872
S214402C6033D1640004F4FF742B1993F830302C44AD
S214402C7094F8310043EA0020F8BD016A01EBD41114
S214402C80154B984720BBA40004F4FE7404F13003AF
S214402C902B449878DA78120642EA0042587842EA9C
S214402CA000202C4494F83030184320F07040F8BD93
S214402CB00120F8BD0120F8BD4FF0FF30F8BD4FF0C1
S214402CC0FF30F8BD4FF0FF30F8BD4FF0FF30F8BD95
S214402CD04FF0FF30F8BD00BF5D2B4000F8B504460E
S214402CE00D46E1808168012938D003689A6991428F
S214402CF036D271B91A78032A01D1596A49B90022E5
S214402D00E2601A89AA422DD95B6A03EB1513236148
S214402D101BE09E783601B54210D3164F2068B84760
S214402D200146B0F1FF3F1FD001281FD923689B6999
S214402D3098421DD2AD1BADB2AE42EFD9E1602068DD
S214402D400D4B984700EB1510206105F00F0252011D
S214402D5030322368134463610020F8BD0220F8BD7A
S214402D600220F8BD0220F8BD0120F8BD0220F8BDC3
S214402D700220F8BDED2B40009D254000F8B50546E5
S214402D800C461646012977D98369994276D203784C
S214402D90022B3ED0032B4ED0012B69D101EB5107BD
S214402DA0016A01EB5721374B98470346002860D10C
S214402DB0C7F3080314F0010409D0EA1892F830204B
S214402DC002F00F02F1B242EA0112D2B200E0F2B2D1
S214402DD02B4483F83020013701232B71296A28467B
S214402DE001EB5721274B98470346002841D1C7F3AC
S214402DF0080714B1C6F3071607E0EA1992F8302020
S214402E0022F00F02C6F3032616432F4487F830609D
S214402E102FE0016A01EB14211A4B9847034640BB4A
S214402E20640004F4FF742A1982F83060C6F307265B
S214402E3082F831601DE0016A01EBD411114B9847CE
S214402E400346B0B9A40004F4FE7404F130022A44E8
S214402E50D17809062C4401F070410E4384F8306066
S214402E60C6F307215170310C9170360ED67000E0D3
S214402E70022301222A7102E0022300E002231846C0
S214402E80F8BD00BF5D2B40002DE9F8430546894656
S214402E9031B9C6686EB183699E4228BF012609E0F3
S214402EA02B4B9847012842D9AB6998424DD34E46A2
S214402EB000E0012634464FF00208254F0134AB6946
S214402EC09C4202D3012E35D9444628462146B8476F
S214402ED038B1B0F1FF3F30D0012830D0B442EDD108
S214402EE02FE02646284621466FF07042194B9847F9
S214402EF00346A8B9B9F1000F06D0284649462246EF
S214402F00144B9847034658B9EE602B69B3F1FF3F20
S214402F101AD0013B2B6101236B712046BDE8F88334
S214402F20012B14BF01204FF0FF30BDE8F88301208D
S214402F30BDE8F8830020BDE8F883BDE8F883BDE827
S214402F40F8830020BDE8F8832046BDE8F88300BF3C
S214402F50ED2B40007D2D40002DE9F84F04460E46EF
S214402F60C5880135ADB2002D6BD00369002B6BD000
S214402F7015F00F075CD101330361C16821B90368BE
S214402F801B89AB4263D953E000688378013B13EA60
S214402F9015134DD13B4B9847804601285AD9B0F17E
S214402FA0FF3F5AD02068836998453AD3002E57D0C1
S214402FB0E168354B98478046002854D0012855D0C4
S214402FC0B0F1FF3F55D020680021304B984700288D
S214402FD052D12068303000214FF400722C4B984775
S214402FE02668304641462B4B9847F06200264FF005
S214402FF0010BB246DFF894900BE083F804B02068EB
S2144030005146C8470136002839D12368DA6A01326A
S214403010DA62F2B2236899789142EED8D96A8A1A6F
S214403020DA62C4F80C80206841461A4B9847206103
S214403030E5807F01303723683B4463610020BDE86C
S214403040F88F0420BDE8F88F0420BDE8F88F0420F0
S214403050BDE8F88F0220BDE8F88F0120BDE8F88F64
S2144030600420BDE8F88F0720BDE8F88F0220BDE8B1
S214403070F88F0120BDE8F88F0120BDE8F88F0120C9
S214403080BDE8F88FED2B4000892E40005D2B4000B8
S2144030908D2540009D2540002DE9F04F87B0054620
S2144030A000216A4B9847002840F0B3804FF0FF0954
S2144030B0C846674F674A0C320192DFF8A4B12868C9
S2144030C02969B847002840F0A5806C692678002E0C
S2144030D000F0A180E37A03F03F02E52E00F0868000
S2144030E013F0080F03D00F2A40F0838001E00F2A28
S2144030F05FD1D5F81CA0BAF1000F00F0828016F020
S214403100400F06D094F80D9006F0BF06EB882B844F
S21440311004E0B04518BF4FF0FF0872D1637B0093C0
S2144031204B4569D1237823F04003013B03EB430230
S21440313003EB82020392474A02F1FF384FF001093F
S214403140CDF808A00596039E04954D46DDF80490FC
S21440315018F8013FE2185078E35C43EA00207DB15E
S2144031603D4B98470546FE2E62D806F1010A029A64
S21440317032F81600384B984785425BD1564603E0F6
S2144031804FF6FF72904257D1C845E1D1DDF808A00E
S214403190A9460396059E049D237813F0400F41D020
S2144031A0B9F1000F3ED0039A3AF81230002B39D0CE
S2144031B043E0B8F1000F03D12046D84748452CD00D
S2144031C04FF6FF732B84AB69DA7A12F0010F16D1F3
S2144031D004F10B0001E0844221D014F8011B13F8DF
S2144031E0012B9142F7D04FF0FF080AE04FF0FF085E
S2144031F007E04FF0FF0804E04FF0FF0801E04FF013
S214403200FF0828460021154B984700283FF457AF43
S21440321007E017E016E0042014E0002012E000204B
S21440322010E00FE0013E5FFA86F8DDF80090E8E730
S214403230049D02E0049D00E0049DDDF800904FF000
S214403240FF08DEE707B0BDE8F08F00BFDD2C40008A
S2144032505D2B4000E894400021384000592F400044
S214403260B52540002DE9F84F04464FF0FF08464686
S2144032700425434FDFF814A10AF10C096DE02068DD
S214403280B847054600286CD160690378002B72D099
S214403290C27AE52B54D02E2B54D002F03F0112F0C8
S2144032A0080F02D00F294FD101E00F293FD113F06C
S2144032B0400F06D090F80D8003F0BF03E2882284CA
S2144032C003E09E4218BFFF2641D190F80DE0C64568
S2144032D03CD1D4F81CC0027802F03F02013A02EB1F
S2144032E0420502EB85050AF1FF3201264FF6FF78CC
S2144032F012F8011F00EB010B9BF801B0415C41EA5C
S2144033000B2136B1FE2D2FD82CF815100E46013560
S21440331001E0414528D14A45EAD1027812F0400FF3
S21440332025D0FE2D20D800222CF815201FE01EB9EF
S214403330144B9847404520D04FF6FF7323841CE03B
S214403340FF2604E0FF2602E0FF2600E0FF26204698
S21440335000210D4B9847054618B9216900298ED1A2
S2144033605DB10023236108E0F046FF26EFE7013B0E
S214403370DEB2F046EBE70425F3E72846BDE8F88FD3
S2144033805D2B4000B5254000592F4000E894400092
S2144033902DE9F04F83B0834688460B782F2B01D01B
S2144033A05C2B01D108F101080023CBF8083098F8CF
S2144033B000301F2B08D858460021B64B9847034686
S2144033C00022CBF8142073E1DFF8E0A2434698468B
S2144033D013F8012B2F2AFAD05C2AF8D0DBF81C50C1
S2144033E098F800001F2840F228812F2800F02A81F4
S2144033F05C2800F02A81AF1E46460124A1460AE01A
S2144034002F2B00F024815C2B00F02181B2F5807FC9
S21440341000F0358114464946D0470146002800F062
S2144034202E817F2809D8222900F029819A4A12F84D
S214403430013F13B19842FAD121E127F8021F621CDE
S21440344016F8013F18461F2BDAD8F8E0002C00F09B
S214403450168105EB440232F8023D202B01D02E2B7C
S21440346002D1013CF7D10AE1002C00F00881670048
S214403470E91900914FF0000925F81490DBF8180080
S21440348020210B22854B9847A91E4B4600E001336E
S21440349031F8022F202AFAD02E2AF8D0002B00F03E
S2144034A0D98046F00306D5E0013C06D108210091BC
S2144034B04FF00009CDF8049006E0A9F1020939F86A
S2144034C0022C2E2AF0D1F1E75F1C35F813000028B5
S2144034D05DD0202804D02E2806D1BC4200F0D180F2
S2144034E046F003063B46EFE7009A914502D2BC42BF
S2144034F017D1B8E0009B0B2B03D146F00306019989
S21440350048E0BC4203D046F00306A74241D80199A2
S2144035108B00DBB2019323460B2200924FF0080942
S214403520D2E77F280CD90021D0470346002800F078
S214403530AD805B490B4413F8800C46F0020650B150
S21440354001462B2807D0574A12F8013F002B00F0BF
S2144035508F809942F8D146F003065F200FE0019A2B
S21440356042F0020201920AE0A0F161039BB2192BDD
S21440357005D8019B43F001030193203880B2DBF865
S214403580183003F809003B4609F101099CE7019908
S21440359000E00199DBF818301A78E52A04BF0522C6
S2144035A01A70009A082A02D18900C9B2019101997D
S2144035B001F00C030C2B03D001F00302032A01D1C7
S2144035C046F0020616F0020F0AD1019901F00302F6
S2144035D0012A08BF46F01006042B08BF46F008062E
S2144035E0DBF81830DE7258462F4B9847DBF8183019
S2144035F0DA7A034648B104285AD102F00403DBB213
S214403600002B14BF0346052352E012F0040F4FD19F
S214403610DBF81430DA7A12F0100F0CD0597D1A7D90
S21440362042EA0122D97E9B7E43EA012343EA0243D3
S214403630CBF80830CAE605233AE00024012290443D
S214403640042603E70024012201E0002401229044DE
S2144036500026FBE62F4437F8022C2E2A3FF426AFEE
S214403660DDF8009020E7009A0B2A7FF450AF44E73D
S214403670A0F141039BB2192B7FF671AF74E7062386
S21440368016E0009B0B2B7FF442AF36E746F002066F
S21440369061E700BFDD2C4000209440008D254000AF
S2144036A0689440002C94400099304000E137400038
S2144036B0184603B0BDE8F08F07280DD8074B53F8DF
S2144036C020300BB100221A7009B100230B70034B57
S2144036D043F82010002070470B207047740D0020E0
S2144036E010B5ADF5067D0446019101A8214600229D
S2144036F0194B9847034600282AD183ABA36103ABF6
S214403700E36120460199154B9847034688B963699B
S214403710ABB1DA7A12F0100F0FD0597D1A7D42EA1B
S2144037200122D97E9B7E43EA012343EA0243A360FB
S21440373005E0042B08BF05230AE0052308E02368BC
S214403740DB88A38020460021054B98470346F0E7D8
S21440375018460DF5067D10BD992640009133400071
S214403760DD2C400070B5ADF5047D04460E4600687D
S214403770A188164B9847054618BB2EB9204600210F
S214403780134B984705461CE081ABA36101ABE36150
S2144037902046104B9847042802D10023236100E0BE
S2144037A060B9204631460C4B9847204600210B4BCB
S2144037B09847042804D10023236102E0054600E030
S2144037C0054628460DF5047D70BD00BFD525400052
S2144037D0DD2C400065324000292A4000592F400029
S2144037E07F281AD911B9C72807D111E0FF2813D866
S2144037F080380A4B33F810007047084A012332F8E5
S214403800021F814205D001339BB2802BF7D100E0E6
S21440381000238033D8B2704700207047D8964000C7
S214403820612809D007490022013231F8023F3BB1F6
S2144038308342F9D10BB970470022034B33F812008C
S214403840704700BFF8944000D89740000B2804D13A
S214403850012902D10122014B1A607047380400202A
S2144038600D280CD1B1F5805F09D10023044A1360BE
S214403870044A1360044A13600122044B1A607047DE
S214403880980D0020940D00209C0D0020A00D0020D7
S21440389070B50C461A4B984207D11E46194D304615
S2144038A02146A8470028FAD120E0174B984207D176
S2144038B01E46144D30462146A8470028FAD117E048
S2144038C0124B984207D11E46114D30462146A84716
S2144038D00028FAD10EE00F4B98420DD11E460C4DF3
S2144038E030462146A8470028FAD107E0012070BD9F
S2144038F0012070BD012070BD002070BD012070BD4C
S21440390000060E405521400000080E400040024090
S214403910752140000080024070B582B0064602AC79
S214403920022344F8043D094D28462146084B984753
S2144039304FF40012074B5A63EE605620064B9847EA
S21440394028462146054B984702B070BD008000408F
S214403950A915400000120E4001000020D915400075
S214403960F0B5E3B04C20594B984718B15848594BDE
S2144039709847A9E05848574B9847584B98470020D7
S214403980574B984700287AD00027554E554D384615
S214403990B047044642F27C10A847002CF7D16EE0B0
S2144039A051484C4B98470EE050484A4B98470AE0DF
S2144039B04F48484B984706E04E48464B984702E0EB
S2144039C04D48444B9847B2204C4CA0471020A04747
S2144039D00020A04752A84A4932464A4B984752A828
S2144039E03C4B9847B320A0471020A0470020A04754
S2144039F0454C204600214FF40C72444B984700201B
S214403A002146434B98470B2806D14248314B9847AE
S214403A100022414B1A6057E012AB07934FF4807375
S214403A20089300223D4B1A6009A83D493D4B9847F4
S214403A30A0B93D4D394C09A801A9A84770B99DF8D1
S214403A400D305BB1079B1A780AB90DF10D031B7850
S214403A502E2BF0D0236801332360ECE72F4B1B68F6
S214403A6033B932481B4B984701222B4B1A602BE048
S214403A702F48184B98470122274B1A6024E0002015
S214403A802C4B9847054600202B4B98470646B120BE
S214403A901A4CA0471020A0470020A0476B1E072BBB
S214403AA08ED801A252F823F0A1394000C139400017
S214403AB0C1394000A9394000B9394000C1394000F9
S214403AC0C1394000B139400063B0F0BDC119400073
S214403AD04C9A400021024000689A4000E1054000B0
S214403AE00106400001000020809A4000989A40005D
S214403AF0AC9A4000C89A4000E49A40001939400009
S214403B00F49A4000CD514000DC0D00203951400071
S214403B10B93640000C9B40009C0D0020940D0020C0
S214403B20289B4000E1364000653740002C9B400013
S214403B30449B4000890A4000AD0A40002DE9F04F02
S214403B4083B04FF0000ADFF86CB0174FDFF868908C
S214403B50DFF868803E460AF0070040F0B000D847DD
S214403B601020D8470020D847802502AC022344F8CE
S214403B70043D30462146C8474FF40013C8F830305D
S214403B800023FB605620094B984730462146084B99
S214403B909847013DE9D10AF1010ABAF1040FDAD19A
S214403BA003B0BDE8F08F00BF008000400100002059
S214403BB0D915400019394000A915400000120E40A2
S214403BC02DE9F04F87B08246029103929946904283
S214403BD060D2DFF8DC8051E005F0070040F0B0002E
S214403BE0C0475846C0470198C047109B13F80A2064
S214403BF0C5EB09030133DB00DBB29A4203D9082345
S214403C001A46002407E00832D31A13F0FF03F7D110
S214403C10082300240CE06400013404F0FF04013A59
S214403C2012F0FF02F7D1C3F1080313F0FF0305D0EB
S214403C306400E4B2013B13F0FF03F9D106AE022361
S214403C4046F8043D154F38463146154B98474FF4D5
S214403C500013144A1363FC605620134B98473846AB
S214403C603146124B98470135EDB2A945B4D20AF118
S214403C70010A5FFA8AFA039B53450BD9029A4A45D2
S214403C80F5D8CAF3021B4BF0100B15460AF00F038B
S214403C900193A1E707B0BDE8F08F00BF0080004069
S214403CA0A915400000120E4001000020D915400022
S214403CB0193940002DE9F04F83B04FF0020B02ADAA
S214403CC045F804BD2E4C20462946DFF8C0A0D04714
S214403CD0DFF8BC804FF40019C8F830900023E3604A
S214403CE05620284FB84720462946274EB047CDF89D
S214403CF004B020462946D047C8F830900023E360F9
S214403D005620B84720462946B047CDF804B020464E
S214403D102946D047C8F830900023E3605620B8477D
S214403D2020462946B047CDF804B020462946D0471D
S214403D30C8F830900023E3605620B847204629460E
S214403D40B047CDF804B020462946D047C8F8309052
S214403D500023E3605620B84720462946B047CDF8B2
S214403D6004B020462946D047C8F830900023E36088
S214403D705620B84720462946B04703B0BDE8F08FE6
S214403D800080004001000020D9154000A9154000E1
S214403D9000120E400D281AD1B1F1804F17D10C4BAE
S214403DA01B68022B13D10B4B1B68012B0FD10A4B00
S214403DB01B6863B9094B1A68094B1B689A4206D2BE
S214403DC0064B1A6801321A600122034B1A6070478C
S214403DD0340400209C0D0020A00D0020980D0020EB
S214403DE0940D00200D2817D1B1F1005F14D10B4B74
S214403DF01B68022B10D10A4B1B68012B0CD1094BB8
S214403E001B684BB9084B1B6833B1074B1A68013A1D
S214403E101A600122034B1A60704700BF340400202A
S214403E209C0D0020A00D0020980D002002680B6815
S214403E30134403600A689B1A0B600268D31A036037
S214403E40704700BF034638B1002013F0010F18BF7B
S214403E5001305B08F9D17047002070472DE9F04FDC
S214403E60ADF5497DB34B9847B34B984704204FF088
S214403E700061B24B984708204FF00061AF4B98471F
S214403E800C20AF498847AF4B13934FF41653149307
S214403E904FF4006015900920A9498847AA4D284646
S214403EA013A9AA4B98472846A94B98472846A94B9A
S214403EB098477EACA84E0FCE0FC496E8030044F851
S214403EC0040B2170A54E7BAB96E8070003C31A701F
S214403ED04FF0000B8DF8F5B178AB06F10C0207CA2F
S214403EE003C31A708DF8E9B175AB06F1180207CA1C
S214403EF003C31A800A2474941423739328467BA918
S214403F002246DFF86882C047749ADFF86492A9FBBD
S214403F100203DB0803EB8301A2EB41025FFA82FA5D
S214403F20A9FB0312D20802EB8202A3EB420303F181
S214403F3030012846C9B28A4FB8470AF130012846B0
S214403F40C9B2B84728462146B847284678A92246E7
S214403F50C047739AA9FB0203DB0803EB8301A2EB7D
S214403F6041025FFA82FAA9FB0312D20802EB8202F0
S214403F70A3EB420303F130012846C9B2B8470AF121
S214403F8030012846C9B2B84728462146B847284691
S214403F9075A92246C04774A873A9724B984728460D
S214403FA07BA92246C047749AA9FB0203DB0803EBB1
S214403FB08301A2EB41025FFA82FAA9FB0312D20800
S214403FC002EB8202A3EB420303F130012846C9B25A
S214403FD0B8470AF130012846C9B2B84728462146B4
S214403FE0B847284678A92246C047739AA9FB0203D9
S214403FF0DB0803EB8301A2EB41025FFA82FAA9FBDE
S2144040000312D20802EB8202A3EB420303F1300113
S2144040102846C9B2B8470AF130012846C9B2B8475F
S21440402028462146B84728462146B8470DF5E07A47
S21440403006F1240393E807008AE807000DF5D87ECA
S21440404006F134030FCBAEE807002EF8023B1B0CFC
S2144040508EF800300DF5D07E06F144030FCBAEE867
S2144040600700AEF80030CDF89CB137203E4B98475D
S2144040706790284668A90E22C047284651460C221B
S214404080C04728463521B84728463521B8472846F0
S2144040902146B84728466CA90F22C047679AA9FB15
S2144040A00203DB0803EB8301A2EB41025FFA82FACC
S2144040B0A9FB0312D20802EB8202A3EB420303F1F0
S2144040C030012846C9B2B8470AF130012846C9B27D
S2144040D0B84728462146B84728462146B8470DF5F2
S2144040E0C87A06F1240393E807008AE807000DF52E
S2144040F0BE7E06F1540CBCE80F00AEE80F00DCF8BC
S21440410000308EF800305CAB06F1680207CA03C385
S2144041101A700DF5A87E74360FCEAEE80F0096E8FE
S2144041200F00AEE80700AEF80030CDF84CB10126DF
S21440413020E000BFD9134000FD164000DD194000C6
S214404140391E4000000E270700080E401D21400083
S214404150652140006D214000A89B4000B899400072
S214404160913840002D3E4000453E40003D14400002
S214404170CDCCCCCC5396284654A91E22C0472846C0
S21440418051460C22C04728463521B8472846352197
S214404190B84728462146B84728465FA91122C04757
S2144041A028463021B84728463521B8472846214674
S2144041B0B84728465CA90922C047539BA9FB03027F
S2144041C0D20802EB8202A3EB420303F130012846F9
S2144041D0C9B2B84728462146B84728462146B84778
S2144041E020204FF02051984B98471D2097498847EC
S2144041F0974D28469749984A5B46984FB847284671
S2144042000421974B9847284659463246954B98473F
S214404210954B98470B208D4B984705F5282505F577
S2144042206065284631462246DFF8A4A2D0478F4B29
S214404230009328460B2132467923DFF89892C847E8
S214404240DFF894824FF40060C8F8000028460B213F
S2144042505A46874FB84728463146864EB0470D20C7
S2144042607A49884705F5806528464FF00051224632
S214404270D047814B009328460D214FF000527923BA
S214404280C8474FF40053C8F8003028460D215A4618
S214404290B84728464FF00051B0470D206B49884735
S2144042A028464FF080412246D047744B009328461C
S2144042B00D214FF080427923C8474FF40053C8F889
S2144042C0003028460D215A46B84728464FF08041D0
S2144042D0B0470D205D49884728464FF48051224616
S2144042E0D047674B009328460D214FF48052492310
S2144042F0C8474FF40053C8F8003028460D215A46A8
S214404300B84728464FF48051B0475E4B98475E4CBE
S214404310A047A047B0205D4CA0471020A047584675
S214404320A0477EA85A4DA847B220A0471020A047D5
S2144043305846A0475748A8475748584B98475B4663
S2144043405A4688A9A8A81A545A540133802BF9D142
S214404350534C544B1B68002B00F03A82524A11686B
S2144043600131524BA3FB01035B0803EB4303CB1A1B
S21440437013604FF00008DFF8149108F0070040F093
S214404380B000C8471020C8470020C84780260227EC
S2144043901397474D284613A9464B98474FF40013AA
S2144043A023630023EB6056203C4B9847284613A9CE
S2144043B0414B9847013EEBD108F10108B8F1040F94
S2144043C0DBD1B020314DA8471020A8470020A84791
S2144043D0354B1B6883B94FF4801363634FF48032C8
S2144043E003F18043A3F5F9331A634FF48003236344
S2144043F03248274B984723E02B4B1B68012B0DD1A7
S2144044004FF480322E4B5A634FF4801323634FF49D
S214404410800323632B481E4B984711E04FF48003DC
S21440442063634FF4801323634FF4803203F1804379
S214404430A3F5F9331A630022234B1A60234B98479F
S2144044400022184B1A60C3E1DD194000391E4000B7
S21440445000800340000E270740420F000D18400022
S2144044605918400041184000D10240004D384000E5
S214404470C51C4000AD194000E53D4000953D40005C
S21440448061384000690140003D3B4000193940001A
S21440449021024000609B40006EE51B0501000020A5
S2144044A000120E403804002034040020ABAAAAAA0A
S2144044B000800040A9154000D91540006C9B400084
S2144044C0000E0E40809B4000980D00206139400051
S2144044D0751840004D1C400000E100E011F8015FF7
S2144044E0A8A81D5412F8010F985501337F2BF5D11B
S2144044F084A87C4B984728BB84ABD3E900673046FA
S214404500394600220023784DA84728B184AB0020C6
S2144045100021C3E9000106E0304639460022734BCD
S214404520714DA84718B100238DF81F330DE0304673
S214404530394600226D4B6E4DA8476E4B98478DF816
S2144045401F0302E000238DF81F336B4D28466B4B4C
S2144045509847284604216A4B984700EB4003C3F32C
S2144045605323C3F118038DF89F32664B1B68002B0C
S21440457050D1C8AD75E944015E4B9847C2B286A893
S2144045806149624B98471520614EB0470F20B047AF
S214404590B020B0475F48604B9847D5E900010022FD
S2144045A05E4B514DA84708B15D4B984786A85A4E7A
S2144045B0B0474FF0020BCDF84CB05A4D284613A9E1
S2144045C0DFF87CA1D0474FF40019C4F8309006219C
S2144045D0E9605620DFF86C81C047284613A9524F41
S2144045E0B847CDF84CB0284613A9D047C4F8309009
S2144045F00623EB605620C047284613A9B8474B48C9
S214404600B047A8AB00930020012180220323484DE9
S214404610A847D9E03B4B1B68012B29D1642303FBF9
S21440462000F0050B5D1B86A842492A46374B984743
S2144046301620374EB0470220B047B020B047354826
S214404640354B9847092D01D8354B984786A8324EAA
S214404650B0473948B047632D01D8314B984788ABAF
S21440466000930020012180220323314DA847ABE070
S214404670324B1B68012B40F0A7804FF00008DFF854
S214404680909008F0070040F0B000C8471020C84798
S2144046900020C847802602271397224D284613A994
S2144046A0274B98474FF4001323630023EB605620B4
S2144046B0244B9847284613A91B4B9847013EEBD1FD
S2144046C008F10108B8F1040FDBD1B020104DA8471F
S2144046D01020A8470020A8471B4B1B68C3BB1B4B9A
S2144046E098476EE03D034000595040000000284087
S2144046F00D484000A950400000800340511840003B
S2144047006518400034040020909B4000CD51400086
S21440471019394000949B400021024000000024408C
S214404720B53C400000800040D9154000989B4000B2
S214404730C13B40009C9B4000A09B4000A00D002039
S214404740A915400001000020980D00206139400066
S21440475013AB08934FF4807309930AA81F49204B64
S214404760984770BB01270026DFF89080DFF89090CE
S2144047700AA802A9C04720BB9DF811300BB3089D7C
S2144047802B780BB90DF111052B782E2BF0D0D9F8DC
S21440479000309F4213D3032E11D806F1010A06F0CB
S2144047A0070040F0B0000F4EB0471020B047002042
S2144047B0B0470D480D4EB0472846B04756460137DD
S2144047C0D6E700220A4B1A600A480B4B9847C0E5CA
S2144047D0A8A988AA0023164680E600BF289B40006A
S2144047E0E136400019394000A49B400021024000B9
S2144047F0A00D00201C8A06000100002065374000FE
S214404800980D002081F0004102E000BF83F0004395
S21440481030B54FEA41044FEA430594EA050F08BF16
S21440482090EA020F1FBF54EA000C55EA020C7FEADA
S214404830645C7FEA655C00F0E2804FEA5454D4EB57
S2144048405555B8BF6D420CDD2C4480EA020281EA21
S214404850030382EA000083EA010180EA020281EA59
S2144048600303362D88BF30BD11F0004F4FEA0131AB
S2144048704FF4801C4CEA113102D0404261EB4101BA
S21440488013F0004F4FEA03334CEA133302D0524240
S21440489063EB430394EA050F00F0A780A4F10104FC
S2144048A0D5F1200E0DDB02FA0EFC22FA05F2801836
S2144048B041F1000103FA0EF2801843FA05F359411C
S2144048C00EE0A5F120050EF1200E012A03FA0EFC9B
S2144048D028BF4CF0020C43FA05F3C01851EBE371C5
S2144048E001F0004507D54FF0000EDCF1000C7EEBE2
S2144048F000006EEB0101B1F5801F1BD3B1F5001F20
S2144049000CD349085FEA30004FEA3C0C04F101043E
S2144049104FEA445212F5800F80F09A80BCF1004F67
S21440492008BF5FEA500C50F1000041EB045141EAE9
S214404930050130BD5FEA4C0C404141EB010111F4EA
S214404940801FA4F10104E9D191F0000F04BF014695
S2144049500020B1FA81F308BF2033A3F10B03B3F173
S21440496020020CDA0C3208DD02F1140CC2F10C0203
S21440497001FA0CF021FA02F10CE002F11402D8BF61
S214404980C2F1200C01FA02F120FA0CFCDCBF41EA2D
S2144049900C019040E41AA2BF01EB0451294330BDFC
S2144049A06FEA04041F3C1CDA0C340EDC04F11404D9
S2144049B0C4F1200220FA04F001FA02F340EA0300B0
S2144049C021FA04F345EA030130BDC4F10C04C4F1F6
S2144049D0200220FA02F001FA04F340EA03002946D6
S2144049E030BD21FA04F0294630BD94F0000F83F420
S2144049F0801306BF81F480110134013D4EE77FEA03
S214404A00645C18BF7FEA655C29D094EA050F08BF4E
S214404A1090EA020F05D054EA000C04BF194610462F
S214404A2030BD91EA030F1EBF0021002030BD5FEA73
S214404A30545C05D14000494128BF41F0004130BD9B
S214404A4014F580043CBF01F5801130BD01F00045EF
S214404A5045F0FE4141F470014FF0000030BD7FEA62
S214404A60645C1ABF194610467FEA655C1CBF0B465D
S214404A70024650EA013406BF52EA033591EA030F74
S214404A8041F4002130BD00BF90F0000F04BF00216C
S214404A90704730B54FF4806404F132044FF000059F
S214404AA04FF0000150E700BF90F0000F04BF002118
S214404AB0704730B54FF4806404F1320410F000457E
S214404AC048BF40424FF000013EE700BF42004FEA79
S214404AD0E2014FEA31014FEA02701FBF12F07F43F6
S214404AE093F07F4F81F06051704792F0000F14BFF3
S214404AF093F07F4F704730B54FF4607401F0004537
S214404B0021F0004120E700BF50EA010208BF70478D
S214404B1030B54FF000050AE050EA010208BF704782
S214404B2030B511F0004502D5404261EB41014FF4EB
S214404B30806404F132045FEA915C3FF4DCAE4FF0EF
S214404B4003025FEADC0C18BF03325FEADC0C18BFD6
S214404B50033202EBDC02C2F1200300FA03FC20FA27
S214404B6002F001FA03FE40EA0E0021FA02F1144474
S214404B70C1E600BF70B54FF0FF0C4CF4E06C1CEA89
S214404B8011541DBF1CEA135594EA0C0F95EA0C0FFE
S214404B9000F0DEF82C4481EA030621EA4C5123EA71
S214404BA04C5350EA013518BF52EA033541F48011A0
S214404BB043F4801338D0A0FB02CE4FF00005E1FB53
S214404BC002E506F00042E0FB03E54FF00006E1FB9D
S214404BD003569CF0000F18BF4EF0010EA4F1FF04E0
S214404BE0B6F5007F64F5407404D25FEA4E0E6D4120
S214404BF046EB060642EAC62141EA55514FEAC52031
S214404C0040EA5E504FEACE2EB4F1FD0C88BFBCF5AC
S214404C10E06F1ED8BEF1004F08BF5FEA500E50F15D
S214404C20000041EB045170BD06F0004646EA010123
S214404C3040EA020081EA0301B4EB5C04C2BFD4EB55
S214404C400C0541EA045170BD41F480114FF0000E4E
S214404C50013C00F3AB8014F1360FDEBF002001F0BC
S214404C60004170BDC4F10004203C35DA0C341BDC36
S214404C7004F11404C4F1200500FA05F320FA04F008
S214404C8001FA05F240EA020001F0004221F000413C
S214404C9010EBD37021FA04F642EB06015EEA430EAF
S214404CA008BF20EAD37070BDC4F10C04C4F12005DF
S214404CB000FA04F320FA05F001FA04F240EA020092
S214404CC001F0004110EBD37041F100015EEA430E63
S214404CD008BF20EAD37070BDC4F1200500FA05F283
S214404CE04EEA020E20FA04F301FA05F243EA020302
S214404CF021FA04F001F0004121FA04F220EA020011
S214404D0000EBD3705EEA430E08BF20EAD37070BD56
S214404D1094F0000F0FD101F00046400041EB010136
S214404D2011F4801F08BF013CF7D041EA060195F018
S214404D30000F18BF704703F00046520043EB0303D2
S214404D4013F4801F08BF013DF7D043EA06037047BF
S214404D5094EA0C0F0CEA135518BF95EA0C0F0CD0CA
S214404D6050EA410618BF52EA4306D1D181EA030110
S214404D7001F000414FF0000070BD50EA410606BF0A
S214404D801046194652EA430619D094EA0C0F02D14F
S214404D9050EA013613D195EA0C0F05D152EA033694
S214404DA01CBF104619460AD181EA030101F00041B2
S214404DB041F0FE4141F470014FF0000070BD41F0FB
S214404DC0FE4141F4780170BD70B54FF0FF0C4CF4D5
S214404DD0E06C1CEA11541DBF1CEA135594EA0C0FF4
S214404DE095EA0C0F00F0A7F8A4EB050481EA030E41
S214404DF052EA03354FEA013100F088804FEA033328
S214404E004FF0805545EA131343EA12634FEA0222F5
S214404E1045EA111545EA10654FEA00260EF00041B6
S214404E209D4208BF964244F1FD0404F5407402D208
S214404E305B084FEA3202B61A65EB03055B084FEA99
S214404E4032024FF480104FF4002CB6EB020E75EB96
S214404E50030E22BFB61A754640EA0C005B084FEABE
S214404E603202B6EB020E75EB030E22BFB61A75463B
S214404E7040EA5C005B084FEA3202B6EB020E75EB86
S214404E80030E22BFB61A754640EA9C005B084FEAFE
S214404E903202B6EB020E75EB030E22BFB61A75460B
S214404EA040EADC0055EA060E18D04FEA051545EAFA
S214404EB016754FEA06164FEAC30343EA52734FEAA3
S214404EC0C2025FEA1C1CC0D111F4801F0BD141EA1C
S214404ED000014FF000004FF0004CB6E711F4801F81
S214404EE004BF01430020B4F1FD0C88BFBCF5E06F61
S214404EF03FF6AFAEB5EB030C04BFB6EB020C5FEA71
S214404F00500C50F1000041EB045170BD0EF0004EC5
S214404F104EEA113114EB5C04C2BFD4EB0C0541EAF7
S214404F20045170BD41F480114FF0000E013C90E6F4
S214404F3045EA060E8DE60CEA135594EA0C0F08BFB8
S214404F4095EA0C0F3FF43BAF94EA0C0F0AD150EAB7
S214404F5001347FF434AF95EA0C0F7FF425AF10464A
S214404F6019462CE795EA0C0F06D152EA03353FF472
S214404F70FDAE1046194622E750EA410618BF52EAEF
S214404F8043067FF4C5AE50EA41047FF40DAF52EAC3
S214404F9043057FF4EBAE12E74FF0FF3C06E000BF60
S214404FA04FF0010C02E000BF4FF0010C4DF804CD6D
S214404FB04FEA410C7FEA6C5C4FEA430C18BF7FEA2D
S214404FC06C5C1BD001B050EA410C0CBF52EA430C5B
S214404FD091EA030F02BF90EA020F0020704710F1DB
S214404FE0000F91EA030F58BF994208BF90422CBF6A
S214404FF0D8176FEAE37040F0010070474FEA410C63
S2144050007FEA6C5C02D150EA013C07D14FEA430C80
S2144050107FEA6C5CD6D152EA033CD3D05DF8040BF1
S214405020704700BF8446104662468C461946634623
S21440503000E000BF01B5FFF7B7FF002848BF10F1FA
S214405040000F01BD4DF808EDFFF7F4FF0CBF01203F
S21440505000205DF808FB00BF4DF808EDFFF7EAFFBB
S21440506034BF012000205DF808FB00BF4DF808ED76
S214405070FFF7E0FF94BF012000205DF808FB00BF6B
S2144050804DF808EDFFF7CEFF94BF012000205DF8F5
S21440509008FB00BF4DF808EDFFF7C4FF34BF012002
S2144050A000205DF808FB00BF4A0011D212F500123E
S2144050B011D20DD56FF47873B3EB62520ED44FEA2B
S2144050C0C12343F0004343EA505323FA02F07047AB
S2144050D04FF00000704750EA013002D14FF0FF30E9
S2144050E070474FF00000704770B50F4E0F4D761B5F
S2144050F0B61007D0043D0024013455F8043F9847C5
S214405100A642F9D10A4E0B4D761B04F01BFEB61094
S21440511008D0043D0024013455F8043F9847A64281
S214405120F9D170BD70BD00BF509D4000509D4000FD
S214405130589D4000509D4000F0B4840743D0541E14
S214405140002A3ED0CDB2034603E0621E002C38D083
S214405150144603F8015B9A07F7D1032C2AD9CDB23F
S21440516045EA05250F2C45EA054515D9A4F1100753
S2144051703F0903F1100606EB07161A461560556000
S2144051809560D5601032B242F8D104F00F04013772
S214405190032C03EB07130DD91E462246043A032A76
S2144051A046F8045BFAD8221F22F003020432134466
S2144051B004F003042CB1C9B21C4403F8011BA342FB
S2144051C0FBD1F0BC704714460346C6E70EB4F0B5B4
S2144051D09CB021AB0F4953F8042B019305466FF062
S2144051E00044086802954FF402774FF6FF7602A90E
S2144051F00695ADF8147004940794ADF8166000F068
S2144052003BF8029B00221A701CB0BDE8F04003B089
S214405210704700BF6808002020F0030110F003002C
S214405220C0F1000051F8043B00F1040C4FEACC0CEE
S2144052306FF000021CBF22FA0CF213434FF0010C31
S2144052404CEA0C2C4CEA0C4CA3EB0C0222EA030270
S21440525012EACC1204BF51F8043B0430F4D013F0E9
S214405260FF0F1FBF013013F47F4F013013F47F0F41
S21440527018BF0130704700BF2DE9F04FC9B09146C6
S21440528010930C910D9002F06BFB00681590FFF7A1
S214405290C3FF0C9C1890A3891A0603D52369002BDC
S2144052A001F08D8038ACA44608942B940025002449
S2144052B0CDE91645002311932D932C931A931993F9
S2144052C00E93664699F80030002B00F0F880252BA8
S2144052D000F0F58009F1010201E0252B04D01446C8
S2144052E001322378002BF8D1C9EB04057DB12C9B05
S2144052F02D9AC6F8009001332A44072B75602D92EC
S2144053002C9300F3C28008360E9828440E902378DB
S214405310002B00F0C280002394F801808DF88F3077
S2144053201A460F93099304F101094FF0FF340A948B
S21440533009F10109A8F12003582B00F2C783DFE8E2
S21440534013F06A02C503C5037102C503C503C5034E
S214405350C503C503C50314036403C5039D00C0000D
S214405360C50378027F027F027F027F027F027F02B0
S2144053707F027F027F02C503C503C503C503C5037D
S214405380C503C503C503C503C50390026F03C50324
S2144053906F03C503C503C503C5036803C503C5033B
S2144053A07800C503C503C503C503C5035900C50337
S2144053B0C503AF02C503C503C503C503C503C5037F
S2144053C0C503C503C503C503370348036F036F030F
S2144053D06F03FF024803C503C5030803C503C502A0
S2144053E07C002103A503C503D902C5035F00C5039E
S2144053F0C503DE00DDF824C04CF0100CCDF824C008
S214405400099CA20600F15683099CE30600F1E0855C
S214405410DDF824C01CF0400F00F0DA85DDF840C00F
S214405420BCF800400CF1040C00250123CDF840C028
S2144054308CE0099D45F010050995DDF824C01CF068
S214405440200340F02C83DDF824C01CF0100240F00E
S214405450B885DDF824C01CF0400300F0B285DDF8C6
S21440546040C0BCF800400CF1040C13460025CDF8B3
S21440547040C06BE00F9C109364420F94099D45F02A
S2144054800405099599F8008052E70D980C992BAAC7
S21440549003F076FB40B938AE36E72D9B23B10D9826
S2144054A00C992BAA03F06CFB0C9C0E98A38913F066
S2144054B0400F18BF4FF0FF3049B0BDE8F08F4C4664
S2144054C025E799F80080B8F12A0F09F1010001F0AC
S2144054D01881A8F13003092B98BF002101F277808C
S2144054E010F8018B01EB810103EB4101A8F1300379
S2144054F0092BF5D941EAE1710A9181461AE7099DDF
S214405500A14C1A94AF068DF88F2040F1D181DDF87A
S21440551040C00CF1070323F0070303F1080410947E
S214405520D3E90045DDF824C01CF0010F00F0648488
S21440553054EA050000F0608430234CF0020C8DF8ED
S21440554090308DF89180CDF824C002234FF0000AA9
S2144055508DF88FA00A99002905DBDDF824C02CF0D1
S214405560800CCDF824C054EA050040F0C7820A9962
S214405570002940F0C382002B40F03A84DDF824C076
S2144055801CF0010F00F0348448AF302307F8413D4B
S214405590089DEC1BDDF828C000256445A8BFA4463E
S2144055A0CDF82CC01495BAF1000F02D00B9D0135F2
S2144055B00B95099B13F00203129302D00B9D023504
S2144055C00B95DDF824C01CF0840CCDF84CC040F0A0
S2144055D092820F9DDDF82CC0CCEB050BBBF1000F83
S2144055E040F38982BBF1100F2D992C9ADFF8A0A1C9
S2144055F02CDD1B97304657461025CA460C9EA146C2
S2144056000D9C06E0ABF1100BBBF1100F00F108004B
S21440561017DD01321031072A2D912C920760456024
S214405620F0DD204631462BAA03F0AAFA00287FF484
S2144056303BAFABF1100BBBF1100F2D992C9A38A84D
S214405640E7DC4C46D146BA461B9F064601320BEB7A
S214405650010C072ACDF8B4C02C9286E8000C00F363
S2144056601C849DF88FA00836BAF1000F0FD02C9BF3
S21440567001330CF1010C0DF18F010122072BCDF8FF
S214405680B4C02C9386E8060000F39A830836129B33
S21440569073B12C9B01330CF1020C24A90222072B78
S2144056A0CDF8B4C02C9386E8060000F39583083600
S2144056B0139D802D00F0CC820A9DC4EB050ABAF1FA
S2144056C0000F3BDDBAF1100F2C9B304D2BDD0A94BA
S2144056D032464FF0100B2E4661460D9C0C9D06E060
S2144056E0AAF1100ABAF1100F02F1080217DD0133D1
S2144056F01031072B2D912C9382E84008F0DD204690
S21440570029462BAA03F03CFA00287FF4CDAEAAF136
S214405710100ABAF1100F2D992C9B38AAE7DC0A9C88
S21440572035468C4616460133D444072BCDF8B4C0D4
S2144057302C9386E8200400F337830836099DED0550
S21440574000F126822C9B37600133A444072BCDF80A
S214405750B4C074602C9300F311830836099C630729
S21440576049D50F9D0B982C1A002C44DD102C2C9BF1
S214405770DFF81CA02BDD574610256246DDF830804A
S214405780DDF834A00BE000BFFC9B4000C89B400007
S2144057901C9C4000103C102C06F1080615DD013319
S2144057A01032072B2D922C9337607560F2DD5046F1
S2144057B041462BAA03F0E4F900287FF475AE103C6E
S2144057C0102C2D9A2C9B38AEE9DC9446BA46013311
S2144057D0A444072BCDF8B4C02C93C6F800A0746040
S2144057E009DD0D980C992BAA03F0CAF900287FF41E
S2144057F05BAEDDF8B4C00E9C0B980F9DA842ACBFC4
S214405800241864190E94BCF1000F40F0C3820023A4
S2144058102C9338AE56E599F80080002A7FF488AD80
S214405820202285E5099D45F00105099599F80080F7
S2144058307EE5099D45F08005099599F8008077E555
S2144058400024A8F130030F94214619F8018B01EB90
S214405850810103EB4101A8F13003092BF5D90F91E3
S21440586068E5DDF824C08DF88F204CF0100CCDF89C
S21440587024C0099CA30640F1B280109DE91D21F08A
S2144058800701D1E900230831109114461D46002A2D
S21440589073F10000C0F28B839DF88FA0012359E678
S2144058A0099DB74C8DF88F20AF061A943FF52FAE62
S2144058B0099DED0640F15D84DDF840C0DCF800400F
S2144058C00CF1040CCDF840C000252BE6DDF824C0D2
